:060000000A128A110F290B
:10000800F000030EF1000B191D200C181020710EC2
:100018008300F00E700E09000B308F00CD308E007B
:100028000C10A00A200886003D3020020319A00108
:10003800080003138312ED3081000B118801221888
:1000480029282508870008142D28260887008814E1
:080058002D280130A20608006A
:100200008A010A140F3982073F3406345B344F34B5
:1002100066346D347D3407347F346F343F34462187
:1002200024212B2138215721031383122008A100F8
:100230001B211D2116296221080023080021A50089
:1002400024080021A6000800031383160F140F17BB
:100250008F120F16080003138316811281110115E6
:100260008114011403138312ED3081000B11080077
:10027000031383121013901610169011901010147F
:100280000B308F00CD308E000C1008000317831642
:1002900088018901031383168601870108108810DD
:1002A00003138312860187010810881008000313C6
:1002B00083160C14031383120B178B178B160B1159
:1002C0000C100800A4010A3021020318A40A031824
:1002D000A100031863296D210800A3010130A102C8
:0A02E0000318A30A031C08006E298E
:04400E00C430FF3F7C
:00000001FF
